{
  "contractName": "ClaimCapx",
  "abi": [
    {
      "inputs": [
        {
          "internalType": "address",
          "name": "_CAPXAddress",
          "type": "address"
        },
        {
          "internalType": "address",
          "name": "_xCAPXAddress",
          "type": "address"
        }
      ],
      "stateMutability": "nonpayable",
      "type": "constructor"
    },
    {
      "anonymous": false,
      "inputs": [
        {
          "indexed": true,
          "internalType": "address",
          "name": "previousOwner",
          "type": "address"
        },
        {
          "indexed": true,
          "internalType": "address",
          "name": "newOwner",
          "type": "address"
        }
      ],
      "name": "OwnershipTransferred",
      "type": "event"
    },
    {
      "anonymous": false,
      "inputs": [
        {
          "indexed": false,
          "internalType": "address",
          "name": "account",
          "type": "address"
        }
      ],
      "name": "Paused",
      "type": "event"
    },
    {
      "anonymous": false,
      "inputs": [
        {
          "indexed": false,
          "internalType": "address",
          "name": "account",
          "type": "address"
        }
      ],
      "name": "Unpaused",
      "type": "event"
    },
    {
      "inputs": [],
      "name": "CAPX",
      "outputs": [
        {
          "internalType": "contract IERC20",
          "name": "",
          "type": "address"
        }
      ],
      "stateMutability": "view",
      "type": "function",
      "constant": true
    },
    {
      "inputs": [
        {
          "internalType": "address",
          "name": "",
          "type": "address"
        }
      ],
      "name": "claimMap",
      "outputs": [
        {
          "internalType": "uint256",
          "name": "",
          "type": "uint256"
        }
      ],
      "stateMutability": "view",
      "type": "function",
      "constant": true
    },
    {
      "inputs": [],
      "name": "owner",
      "outputs": [
        {
          "internalType": "address",
          "name": "",
          "type": "address"
        }
      ],
      "stateMutability": "view",
      "type": "function",
      "constant": true
    },
    {
      "inputs": [],
      "name": "paused",
      "outputs": [
        {
          "internalType": "bool",
          "name": "",
          "type": "bool"
        }
      ],
      "stateMutability": "view",
      "type": "function",
      "constant": true
    },
    {
      "inputs": [],
      "name": "renounceOwnership",
      "outputs": [],
      "stateMutability": "nonpayable",
      "type": "function"
    },
    {
      "inputs": [
        {
          "internalType": "contract IERC20",
          "name": "",
          "type": "address"
        }
      ],
      "name": "tokenBalances",
      "outputs": [
        {
          "internalType": "uint256",
          "name": "",
          "type": "uint256"
        }
      ],
      "stateMutability": "view",
      "type": "function",
      "constant": true
    },
    {
      "inputs": [
        {
          "internalType": "address",
          "name": "newOwner",
          "type": "address"
        }
      ],
      "name": "transferOwnership",
      "outputs": [],
      "stateMutability": "nonpayable",
      "type": "function"
    },
    {
      "inputs": [],
      "name": "xCAPX",
      "outputs": [
        {
          "internalType": "contract IERC20",
          "name": "",
          "type": "address"
        }
      ],
      "stateMutability": "view",
      "type": "function",
      "constant": true
    },
    {
      "inputs": [
        {
          "internalType": "contract IERC20",
          "name": "token",
          "type": "address"
        },
        {
          "internalType": "uint256",
          "name": "amount",
          "type": "uint256"
        }
      ],
      "name": "depositToken",
      "outputs": [],
      "stateMutability": "nonpayable",
      "type": "function"
    },
    {
      "inputs": [
        {
          "internalType": "contract IERC20",
          "name": "iouToken",
          "type": "address"
        },
        {
          "internalType": "uint256",
          "name": "amount",
          "type": "uint256"
        }
      ],
      "name": "burnIOU",
      "outputs": [],
      "stateMutability": "nonpayable",
      "type": "function"
    },
    {
      "inputs": [
        {
          "internalType": "contract IERC20",
          "name": "iouToken",
          "type": "address"
        },
        {
          "internalType": "uint256",
          "name": "amount",
          "type": "uint256"
        }
      ],
      "name": "claimIOU",
      "outputs": [],
      "stateMutability": "nonpayable",
      "type": "function"
    },
    {
      "inputs": [
        {
          "internalType": "contract IERC20",
          "name": "iouToken",
          "type": "address"
        },
        {
          "internalType": "uint256",
          "name": "amount",
          "type": "uint256"
        }
      ],
      "name": "burnAndClaim",
      "outputs": [],
      "stateMutability": "nonpayable",
      "type": "function"
    }
  ],
  "bytecode": "0x60806040523480156200001157600080fd5b506040516200185738038062001857833981810160405281019062000037919062000232565b60008060006101000a81548160ff0219169083151502179055506200007162000065620000fb60201b60201c565b6200010360201b60201c565b81600160006101000a81548173ffffffffffffffffffffffffffffffffffffffff021916908373ffffffffffffffffffffffffffffffffffffffff16021790555080600260006101000a81548173ffffffffffffffffffffffffffffffffffffffff021916908373ffffffffffffffffffffffffffffffffffffffff160217905550505062000279565b600033905090565b60008060019054906101000a900473ffffffffffffffffffffffffffffffffffffffff16905081600060016101000a81548173ffffffffffffffffffffffffffffffffffffffff021916908373ffffffffffffffffffffffffffffffffffffffff1602179055508173ffffffffffffffffffffffffffffffffffffffff168173ffffffffffffffffffffffffffffffffffffffff167f8be0079c531659141344cd1fd0a4f28419497f9722a3daafe3b4186f6b6457e060405160405180910390a35050565b600080fd5b600073ffffffffffffffffffffffffffffffffffffffff82169050919050565b6000620001fa82620001cd565b9050919050565b6200020c81620001ed565b81146200021857600080fd5b50565b6000815190506200022c8162000201565b92915050565b600080604083850312156200024c576200024b620001c8565b5b60006200025c858286016200021b565b92505060206200026f858286016200021b565b9150509250929050565b6115ce80620002896000396000f3fe608060405234801561001057600080fd5b50600436106100b45760003560e01c8063715018a611610071578063715018a61461017b57806378f5ab39146101855780638da5cb5b146101b5578063a796501d146101d3578063dd7f8ff4146101ef578063f2fde38b1461020b576100b4565b8063060d7c94146100b95780631cd9d0c6146100d7578063338b5dea146100f5578063523fba7f146101115780635c975abb1461014157806360a220661461015f575b600080fd5b6100c1610227565b6040516100ce9190610d45565b60405180910390f35b6100df61024d565b6040516100ec9190610d45565b60405180910390f35b61010f600480360381019061010a9190610deb565b610273565b005b61012b60048036038101906101269190610e2b565b6103d5565b6040516101389190610e67565b60405180910390f35b6101496103ed565b6040516101569190610e9d565b60405180910390f35b61017960048036038101906101749190610deb565b610403565b005b610183610411565b005b61019f600480360381019061019a9190610ee4565b610425565b6040516101ac9190610e67565b60405180910390f35b6101bd61043d565b6040516101ca9190610f20565b60405180910390f35b6101ed60048036038101906101e89190610deb565b610466565b005b61020960048036038101906102049190610deb565b610474565b005b61022560048036038101906102209190610ee4565b61048c565b005b600260009054906101000a900473ffffffffffffffffffffffffffffffffffffffff1681565b600160009054906101000a900473ffffffffffffffffffffffffffffffffffffffff1681565b61027b610510565b600160009054906101000a900473ffffffffffffffffffffffffffffffffffffffff1673ffffffffffffffffffffffffffffffffffffffff168273ffffffffffffffffffffffffffffffffffffffff161461030b576040517f08c379a000000000000000000000000000000000000000000000000000000000815260040161030290610f98565b60405180910390fd5b6000811161034e576040517f08c379a000000000000000000000000000000000000000000000000000000000815260040161034590611004565b60405180910390fd5b80600360008473ffffffffffffffffffffffffffffffffffffffff1673ffffffffffffffffffffffffffffffffffffffff168152602001908152602001600020600082825461039d9190611053565b925050819055506103d13330838573ffffffffffffffffffffffffffffffffffffffff1661058e909392919063ffffffff16565b5050565b60036020528060005260406000206000915090505481565b60008060009054906101000a900460ff16905090565b61040d8282610617565b5050565b610419610510565b610423600061072e565b565b60046020528060005260406000206000915090505481565b60008060019054906101000a900473ffffffffffffffffffffffffffffffffffffffff16905090565b61047082826107f3565b5050565b61047e8282610617565b61048882826107f3565b5050565b610494610510565b600073ffffffffffffffffffffffffffffffffffffffff168173ffffffffffffffffffffffffffffffffffffffff161415610504576040517f08c379a00000000000000000000000000000000000000000000000000000000081526004016104fb9061111b565b60405180910390fd5b61050d8161072e565b50565b6105186109a2565b73ffffffffffffffffffffffffffffffffffffffff1661053661043d565b73ffffffffffffffffffffffffffffffffffffffff161461058c576040517f08c379a000000000000000000000000000000000000000000000000000000000815260040161058390611187565b60405180910390fd5b565b610611846323b872dd60e01b8585856040516024016105af939291906111a7565b604051602081830303815290604052907bffffffffffffffffffffffffffffffffffffffffffffffffffffffff19166020820180517bffffffffffffffffffffffffffffffffffffffffffffffffffffffff83818316178352505050506109aa565b50505050565b600260009054906101000a900473ffffffffffffffffffffffffffffffffffffffff1673ffffffffffffffffffffffffffffffffffffffff168273ffffffffffffffffffffffffffffffffffffffff16146106a7576040517f08c379a000000000000000000000000000000000000000000000000000000000815260040161069e9061122a565b60405180910390fd5b80600460003373ffffffffffffffffffffffffffffffffffffffff1673ffffffffffffffffffffffffffffffffffffffff16815260200190815260200160002060008282546106f69190611053565b9250508190555061072a3330838573ffffffffffffffffffffffffffffffffffffffff1661058e909392919063ffffffff16565b5050565b60008060019054906101000a900473ffffffffffffffffffffffffffffffffffffffff16905081600060016101000a81548173ffffffffffffffffffffffffffffffffffffffff021916908373ffffffffffffffffffffffffffffffffffffffff1602179055508173ffffffffffffffffffffffffffffffffffffffff168173ffffffffffffffffffffffffffffffffffffffff167f8be0079c531659141344cd1fd0a4f28419497f9722a3daafe3b4186f6b6457e060405160405180910390a35050565b600260009054906101000a900473ffffffffffffffffffffffffffffffffffffffff1673ffffffffffffffffffffffffffffffffffffffff168273ffffffffffffffffffffffffffffffffffffffff1614610883576040517f08c379a000000000000000000000000000000000000000000000000000000000815260040161087a9061122a565b60405180910390fd5b80600460003373ffffffffffffffffffffffffffffffffffffffff1673ffffffffffffffffffffffffffffffffffffffff16815260200190815260200160002060008282546108d2919061124a565b925050819055508060036000600160009054906101000a900473ffffffffffffffffffffffffffffffffffffffff1673ffffffffffffffffffffffffffffffffffffffff1673ffffffffffffffffffffffffffffffffffffffff168152602001908152602001600020600082825461094a919061124a565b9250508190555061099e3382600160009054906101000a900473ffffffffffffffffffffffffffffffffffffffff1673ffffffffffffffffffffffffffffffffffffffff16610a729092919063ffffffff16565b5050565b600033905090565b6000610a0c826040518060400160405280602081526020017f5361666545524332303a206c6f772d6c6576656c2063616c6c206661696c65648152508573ffffffffffffffffffffffffffffffffffffffff16610af89092919063ffffffff16565b9050600081511480610a2e575080806020019051810190610a2d91906112aa565b5b610a6d576040517f08c379a0000000000000000000000000000000000000000000000000000000008152600401610a6490611349565b60405180910390fd5b505050565b610af38363a9059cbb60e01b8484604051602401610a91929190611369565b604051602081830303815290604052907bffffffffffffffffffffffffffffffffffffffffffffffffffffffff19166020820180517bffffffffffffffffffffffffffffffffffffffffffffffffffffffff83818316178352505050506109aa565b505050565b6060610b078484600085610b10565b90509392505050565b606082471015610b55576040517f08c379a0000000000000000000000000000000000000000000000000000000008152600401610b4c90611404565b60405180910390fd5b6000808673ffffffffffffffffffffffffffffffffffffffff168587604051610b7e919061149e565b60006040518083038185875af1925050503d8060008114610bbb576040519150601f19603f3d011682016040523d82523d6000602084013e610bc0565b606091505b5091509150610bd187838387610bdd565b92505050949350505050565b60608315610c4057600083511415610c3857610bf885610c53565b610c37576040517f08c379a0000000000000000000000000000000000000000000000000000000008152600401610c2e90611501565b60405180910390fd5b5b829050610c4b565b610c4a8383610c76565b5b949350505050565b6000808273ffffffffffffffffffffffffffffffffffffffff163b119050919050565b600082511115610c895781518083602001fd5b806040517f08c379a0000000000000000000000000000000000000000000000000000000008152600401610cbd9190611576565b60405180910390fd5b600073ffffffffffffffffffffffffffffffffffffffff82169050919050565b6000819050919050565b6000610d0b610d06610d0184610cc6565b610ce6565b610cc6565b9050919050565b6000610d1d82610cf0565b9050919050565b6000610d2f82610d12565b9050919050565b610d3f81610d24565b82525050565b6000602082019050610d5a6000830184610d36565b92915050565b600080fd5b6000610d7082610cc6565b9050919050565b6000610d8282610d65565b9050919050565b610d9281610d77565b8114610d9d57600080fd5b50565b600081359050610daf81610d89565b92915050565b6000819050919050565b610dc881610db5565b8114610dd357600080fd5b50565b600081359050610de581610dbf565b92915050565b60008060408385031215610e0257610e01610d60565b5b6000610e1085828601610da0565b9250506020610e2185828601610dd6565b9150509250929050565b600060208284031215610e4157610e40610d60565b5b6000610e4f84828501610da0565b91505092915050565b610e6181610db5565b82525050565b6000602082019050610e7c6000830184610e58565b92915050565b60008115159050919050565b610e9781610e82565b82525050565b6000602082019050610eb26000830184610e8e565b92915050565b610ec181610d65565b8114610ecc57600080fd5b50565b600081359050610ede81610eb8565b92915050565b600060208284031215610efa57610ef9610d60565b5b6000610f0884828501610ecf565b91505092915050565b610f1a81610d65565b82525050565b6000602082019050610f356000830184610f11565b92915050565b600082825260208201905092915050565b7f53686f756c64204265206361707820746f6b656e000000000000000000000000600082015250565b6000610f82601483610f3b565b9150610f8d82610f4c565b602082019050919050565b60006020820190508181036000830152610fb181610f75565b9050919050565b7f416d6f756e74206d7573742062652067726561746572207468616e2030000000600082015250565b6000610fee601d83610f3b565b9150610ff982610fb8565b602082019050919050565b6000602082019050818103600083015261101d81610fe1565b9050919050565b7f4e487b7100000000000000000000000000000000000000000000000000000000600052601160045260246000fd5b600061105e82610db5565b915061106983610db5565b9250827fffffffffffffffffffffffffffffffffffffffffffffffffffffffffffffffff0382111561109e5761109d611024565b5b828201905092915050565b7f4f776e61626c653a206e6577206f776e657220697320746865207a65726f206160008201527f6464726573730000000000000000000000000000000000000000000000000000602082015250565b6000611105602683610f3b565b9150611110826110a9565b604082019050919050565b60006020820190508181036000830152611134816110f8565b9050919050565b7f4f776e61626c653a2063616c6c6572206973206e6f7420746865206f776e6572600082015250565b6000611171602083610f3b565b915061117c8261113b565b602082019050919050565b600060208201905081810360008301526111a081611164565b9050919050565b60006060820190506111bc6000830186610f11565b6111c96020830185610f11565b6111d66040830184610e58565b949350505050565b7f4e6f7420612076616c6964204341505820494f5520546f6b656e000000000000600082015250565b6000611214601a83610f3b565b915061121f826111de565b602082019050919050565b6000602082019050818103600083015261124381611207565b9050919050565b600061125582610db5565b915061126083610db5565b92508282101561127357611272611024565b5b828203905092915050565b61128781610e82565b811461129257600080fd5b50565b6000815190506112a48161127e565b92915050565b6000602082840312156112c0576112bf610d60565b5b60006112ce84828501611295565b91505092915050565b7f5361666545524332303a204552433230206f7065726174696f6e20646964206e60008201527f6f74207375636365656400000000000000000000000000000000000000000000602082015250565b6000611333602a83610f3b565b915061133e826112d7565b604082019050919050565b6000602082019050818103600083015261136281611326565b9050919050565b600060408201905061137e6000830185610f11565b61138b6020830184610e58565b9392505050565b7f416464726573733a20696e73756666696369656e742062616c616e636520666f60008201527f722063616c6c0000000000000000000000000000000000000000000000000000602082015250565b60006113ee602683610f3b565b91506113f982611392565b604082019050919050565b6000602082019050818103600083015261141d816113e1565b9050919050565b600081519050919050565b600081905092915050565b60005b8381101561145857808201518184015260208101905061143d565b83811115611467576000848401525b50505050565b600061147882611424565b611482818561142f565b935061149281856020860161143a565b80840191505092915050565b60006114aa828461146d565b915081905092915050565b7f416464726573733a2063616c6c20746f206e6f6e2d636f6e7472616374000000600082015250565b60006114eb601d83610f3b565b91506114f6826114b5565b602082019050919050565b6000602082019050818103600083015261151a816114de565b9050919050565b600081519050919050565b6000601f19601f8301169050919050565b600061154882611521565b6115528185610f3b565b935061156281856020860161143a565b61156b8161152c565b840191505092915050565b60006020820190508181036000830152611590818461153d565b90509291505056fea2646970667358221220b5fbc3da5700213fecb623fb3a2b79ab53b9e78b465fc72e1e64de96f0fee70764736f6c63430008090033",
  "immutableReferences": {},
  "source": "// SPDX-License-Identifier: MIT\npragma solidity ^0.8.9;\n\nimport \"@openzeppelin/contracts/security/Pausable.sol\";\nimport \"@openzeppelin/contracts/access/Ownable.sol\";\nimport \"@openzeppelin/contracts/token/ERC20/utils/SafeERC20.sol\"; // Import SafeERC20 library\nimport \"@openzeppelin/contracts/token/ERC20/IERC20.sol\"; // Import IERC20 interface\n\ncontract ClaimCapx is Pausable, Ownable {\n    using SafeERC20 for IERC20; // Use SafeERC20 library\n\n    IERC20 public CAPX;\n\tIERC20 public xCAPX;\n\n    mapping (IERC20=>uint256) public tokenBalances;\n    mapping (address=>uint256) public claimMap;\n\n    constructor(address _CAPXAddress, address _xCAPXAddress) {\n\t\tCAPX = IERC20(_CAPXAddress);\n\t\txCAPX = IERC20(_xCAPXAddress);\n\t}\n\n    // Deposit ERC20 tokens into the contract\n    function depositToken(IERC20 token, uint256 amount) external onlyOwner {\n        require(token == CAPX, \"Should Be capx token\");\n        require(amount > 0, \"Amount must be greater than 0\");\n\n        tokenBalances[token] += amount;\n        token.safeTransferFrom(msg.sender, address(this), amount);\n    }\n\n\n    function _burnIOU(IERC20 iouToken, uint256 amount) internal {\n        require(iouToken==xCAPX,\"Not a valid CAPX IOU Token\");\n        claimMap[msg.sender] += amount;\n       iouToken.safeTransferFrom(msg.sender, address(this), amount);\n    }\n\n    function _claimIOU(IERC20 iouToken, uint256 amount) internal {\n         require(iouToken==xCAPX,\"Not a valid CAPX IOU Token\");\n        claimMap[msg.sender] -= amount;\n        tokenBalances[CAPX] -= amount;\n        CAPX.safeTransfer(msg.sender, amount);\n    }\n\n    function burnIOU(IERC20 iouToken, uint256 amount) external {\n\n        _burnIOU(iouToken, amount);\n        \n    }\n\n    function claimIOU(IERC20 iouToken, uint256 amount) external {\n\n        _claimIOU(iouToken, amount);\n        \n    }\n\n    function burnAndClaim(IERC20 iouToken, uint256 amount) external {\n        _burnIOU(iouToken, amount);\n        _claimIOU(iouToken, amount);\n    }\n\n\n}\n",
  "sourcePath": "/Users/chesterking/Desktop/CapxOps/ioueater/contracts/Eater.sol",
  "compiler": {
    "name": "solc",
    "version": "0.8.9+commit.e5eed63a.Emscripten.clang"
  },
  "schemaVersion": "3.4.7",
  "updatedAt": "2023-08-23T11:43:07.142Z",
  "networkType": "ethereum",
  "devdoc": {
    "kind": "dev",
    "methods": {
      "owner()": {
        "details": "Returns the address of the current owner."
      },
      "paused()": {
        "details": "Returns true if the contract is paused, and false otherwise."
      },
      "renounceOwnership()": {
        "details": "Leaves the contract without owner. It will not be possible to call `onlyOwner` functions. Can only be called by the current owner. NOTE: Renouncing ownership will leave the contract without an owner, thereby disabling any functionality that is only available to the owner."
      },
      "transferOwnership(address)": {
        "details": "Transfers ownership of the contract to a new account (`newOwner`). Can only be called by the current owner."
      }
    },
    "version": 1
  },
  "userdoc": {
    "kind": "user",
    "methods": {},
    "version": 1
  }
}