{
  "contractName": "Eater",
  "abi": [
    {
      "anonymous": false,
      "inputs": [
        {
          "indexed": true,
          "internalType": "address",
          "name": "previousOwner",
          "type": "address"
        },
        {
          "indexed": true,
          "internalType": "address",
          "name": "newOwner",
          "type": "address"
        }
      ],
      "name": "OwnershipTransferred",
      "type": "event"
    },
    {
      "anonymous": false,
      "inputs": [
        {
          "indexed": false,
          "internalType": "address",
          "name": "account",
          "type": "address"
        }
      ],
      "name": "Paused",
      "type": "event"
    },
    {
      "anonymous": false,
      "inputs": [
        {
          "indexed": false,
          "internalType": "address",
          "name": "account",
          "type": "address"
        }
      ],
      "name": "Unpaused",
      "type": "event"
    },
    {
      "inputs": [],
      "name": "owner",
      "outputs": [
        {
          "internalType": "address",
          "name": "",
          "type": "address"
        }
      ],
      "stateMutability": "view",
      "type": "function",
      "constant": true
    },
    {
      "inputs": [],
      "name": "paused",
      "outputs": [
        {
          "internalType": "bool",
          "name": "",
          "type": "bool"
        }
      ],
      "stateMutability": "view",
      "type": "function",
      "constant": true
    },
    {
      "inputs": [],
      "name": "renounceOwnership",
      "outputs": [],
      "stateMutability": "nonpayable",
      "type": "function"
    },
    {
      "inputs": [
        {
          "internalType": "address",
          "name": "",
          "type": "address"
        }
      ],
      "name": "tokenBalances",
      "outputs": [
        {
          "internalType": "uint256",
          "name": "",
          "type": "uint256"
        }
      ],
      "stateMutability": "view",
      "type": "function",
      "constant": true
    },
    {
      "inputs": [
        {
          "internalType": "address",
          "name": "newOwner",
          "type": "address"
        }
      ],
      "name": "transferOwnership",
      "outputs": [],
      "stateMutability": "nonpayable",
      "type": "function"
    },
    {
      "inputs": [],
      "name": "pause",
      "outputs": [],
      "stateMutability": "nonpayable",
      "type": "function"
    },
    {
      "inputs": [],
      "name": "unpause",
      "outputs": [],
      "stateMutability": "nonpayable",
      "type": "function"
    },
    {
      "inputs": [
        {
          "internalType": "address",
          "name": "token",
          "type": "address"
        },
        {
          "internalType": "uint256",
          "name": "amount",
          "type": "uint256"
        }
      ],
      "name": "depositToken",
      "outputs": [],
      "stateMutability": "nonpayable",
      "type": "function"
    }
  ],
  "bytecode": "0x608060405234801561001057600080fd5b5060008060006101000a81548160ff02191690831515021790555061004761003c61004c60201b60201c565b61005460201b60201c565b610119565b600033905090565b60008060019054906101000a900473ffffffffffffffffffffffffffffffffffffffff16905081600060016101000a81548173ffffffffffffffffffffffffffffffffffffffff021916908373ffffffffffffffffffffffffffffffffffffffff1602179055508173ffffffffffffffffffffffffffffffffffffffff168173ffffffffffffffffffffffffffffffffffffffff167f8be0079c531659141344cd1fd0a4f28419497f9722a3daafe3b4186f6b6457e060405160405180910390a35050565b611197806101286000396000f3fe608060405234801561001057600080fd5b50600436106100885760003560e01c8063715018a61161005b578063715018a6146101015780638456cb591461010b5780638da5cb5b14610115578063f2fde38b1461013357610088565b8063338b5dea1461008d5780633f4ba83a146100a9578063523fba7f146100b35780635c975abb146100e3575b600080fd5b6100a760048036038101906100a291906109fe565b61014f565b005b6100b1610291565b005b6100cd60048036038101906100c89190610a3e565b6102a3565b6040516100da9190610a7a565b60405180910390f35b6100eb6102bb565b6040516100f89190610ab0565b60405180910390f35b6101096102d1565b005b6101136102e5565b005b61011d6102f7565b60405161012a9190610ada565b60405180910390f35b61014d60048036038101906101489190610a3e565b610320565b005b6101576103a4565b600073ffffffffffffffffffffffffffffffffffffffff168273ffffffffffffffffffffffffffffffffffffffff1614156101c7576040517f08c379a00000000000000000000000000000000000000000000000000000000081526004016101be90610b52565b60405180910390fd5b6000811161020a576040517f08c379a000000000000000000000000000000000000000000000000000000000815260040161020190610bbe565b60405180910390fd5b80600160008473ffffffffffffffffffffffffffffffffffffffff1673ffffffffffffffffffffffffffffffffffffffff16815260200190815260200160002060008282546102599190610c0d565b9250508190555061028d3330838573ffffffffffffffffffffffffffffffffffffffff16610422909392919063ffffffff16565b5050565b6102996103a4565b6102a16104ab565b565b60016020528060005260406000206000915090505481565b60008060009054906101000a900460ff16905090565b6102d96103a4565b6102e3600061050d565b565b6102ed6103a4565b6102f56105d2565b565b60008060019054906101000a900473ffffffffffffffffffffffffffffffffffffffff16905090565b6103286103a4565b600073ffffffffffffffffffffffffffffffffffffffff168173ffffffffffffffffffffffffffffffffffffffff161415610398576040517f08c379a000000000000000000000000000000000000000000000000000000000815260040161038f90610cd5565b60405180910390fd5b6103a18161050d565b50565b6103ac610634565b73ffffffffffffffffffffffffffffffffffffffff166103ca6102f7565b73ffffffffffffffffffffffffffffffffffffffff1614610420576040517f08c379a000000000000000000000000000000000000000000000000000000000815260040161041790610d41565b60405180910390fd5b565b6104a5846323b872dd60e01b85858560405160240161044393929190610d61565b604051602081830303815290604052907bffffffffffffffffffffffffffffffffffffffffffffffffffffffff19166020820180517bffffffffffffffffffffffffffffffffffffffffffffffffffffffff838183161783525050505061063c565b50505050565b6104b3610704565b60008060006101000a81548160ff0219169083151502179055507f5db9ee0a495bf2e6ff9c91a7834c1ba4fdd244a5e8aa4e537bd38aeae4b073aa6104f6610634565b6040516105039190610ada565b60405180910390a1565b60008060019054906101000a900473ffffffffffffffffffffffffffffffffffffffff16905081600060016101000a81548173ffffffffffffffffffffffffffffffffffffffff021916908373ffffffffffffffffffffffffffffffffffffffff1602179055508173ffffffffffffffffffffffffffffffffffffffff168173ffffffffffffffffffffffffffffffffffffffff167f8be0079c531659141344cd1fd0a4f28419497f9722a3daafe3b4186f6b6457e060405160405180910390a35050565b6105da61074d565b60016000806101000a81548160ff0219169083151502179055507f62e78cea01bee320cd4e420270b5ea74000d11b0c9f74754ebdbfc544b05a25861061d610634565b60405161062a9190610ada565b60405180910390a1565b600033905090565b600061069e826040518060400160405280602081526020017f5361666545524332303a206c6f772d6c6576656c2063616c6c206661696c65648152508573ffffffffffffffffffffffffffffffffffffffff166107979092919063ffffffff16565b90506000815114806106c05750808060200190518101906106bf9190610dc4565b5b6106ff576040517f08c379a00000000000000000000000000000000000000000000000000000000081526004016106f690610e63565b60405180910390fd5b505050565b61070c6102bb565b61074b576040517f08c379a000000000000000000000000000000000000000000000000000000000815260040161074290610ecf565b60405180910390fd5b565b6107556102bb565b15610795576040517f08c379a000000000000000000000000000000000000000000000000000000000815260040161078c90610f3b565b60405180910390fd5b565b60606107a684846000856107af565b90509392505050565b6060824710156107f4576040517f08c379a00000000000000000000000000000000000000000000000000000000081526004016107eb90610fcd565b60405180910390fd5b6000808673ffffffffffffffffffffffffffffffffffffffff16858760405161081d9190611067565b60006040518083038185875af1925050503d806000811461085a576040519150601f19603f3d011682016040523d82523d6000602084013e61085f565b606091505b50915091506108708783838761087c565b92505050949350505050565b606083156108df576000835114156108d757610897856108f2565b6108d6576040517f08c379a00000000000000000000000000000000000000000000000000000000081526004016108cd906110ca565b60405180910390fd5b5b8290506108ea565b6108e98383610915565b5b949350505050565b6000808273ffffffffffffffffffffffffffffffffffffffff163b119050919050565b6000825111156109285781518083602001fd5b806040517f08c379a000000000000000000000000000000000000000000000000000000000815260040161095c919061113f565b60405180910390fd5b600080fd5b600073ffffffffffffffffffffffffffffffffffffffff82169050919050565b60006109958261096a565b9050919050565b6109a58161098a565b81146109b057600080fd5b50565b6000813590506109c28161099c565b92915050565b6000819050919050565b6109db816109c8565b81146109e657600080fd5b50565b6000813590506109f8816109d2565b92915050565b60008060408385031215610a1557610a14610965565b5b6000610a23858286016109b3565b9250506020610a34858286016109e9565b9150509250929050565b600060208284031215610a5457610a53610965565b5b6000610a62848285016109b3565b91505092915050565b610a74816109c8565b82525050565b6000602082019050610a8f6000830184610a6b565b92915050565b60008115159050919050565b610aaa81610a95565b82525050565b6000602082019050610ac56000830184610aa1565b92915050565b610ad48161098a565b82525050565b6000602082019050610aef6000830184610acb565b92915050565b600082825260208201905092915050565b7f496e76616c696420746f6b656e20616464726573730000000000000000000000600082015250565b6000610b3c601583610af5565b9150610b4782610b06565b602082019050919050565b60006020820190508181036000830152610b6b81610b2f565b9050919050565b7f416d6f756e74206d7573742062652067726561746572207468616e2030000000600082015250565b6000610ba8601d83610af5565b9150610bb382610b72565b602082019050919050565b60006020820190508181036000830152610bd781610b9b565b9050919050565b7f4e487b7100000000000000000000000000000000000000000000000000000000600052601160045260246000fd5b6000610c18826109c8565b9150610c23836109c8565b9250827fffffffffffffffffffffffffffffffffffffffffffffffffffffffffffffffff03821115610c5857610c57610bde565b5b828201905092915050565b7f4f776e61626c653a206e6577206f776e657220697320746865207a65726f206160008201527f6464726573730000000000000000000000000000000000000000000000000000602082015250565b6000610cbf602683610af5565b9150610cca82610c63565b604082019050919050565b60006020820190508181036000830152610cee81610cb2565b9050919050565b7f4f776e61626c653a2063616c6c6572206973206e6f7420746865206f776e6572600082015250565b6000610d2b602083610af5565b9150610d3682610cf5565b602082019050919050565b60006020820190508181036000830152610d5a81610d1e565b9050919050565b6000606082019050610d766000830186610acb565b610d836020830185610acb565b610d906040830184610a6b565b949350505050565b610da181610a95565b8114610dac57600080fd5b50565b600081519050610dbe81610d98565b92915050565b600060208284031215610dda57610dd9610965565b5b6000610de884828501610daf565b91505092915050565b7f5361666545524332303a204552433230206f7065726174696f6e20646964206e60008201527f6f74207375636365656400000000000000000000000000000000000000000000602082015250565b6000610e4d602a83610af5565b9150610e5882610df1565b604082019050919050565b60006020820190508181036000830152610e7c81610e40565b9050919050565b7f5061757361626c653a206e6f7420706175736564000000000000000000000000600082015250565b6000610eb9601483610af5565b9150610ec482610e83565b602082019050919050565b60006020820190508181036000830152610ee881610eac565b9050919050565b7f5061757361626c653a2070617573656400000000000000000000000000000000600082015250565b6000610f25601083610af5565b9150610f3082610eef565b602082019050919050565b60006020820190508181036000830152610f5481610f18565b9050919050565b7f416464726573733a20696e73756666696369656e742062616c616e636520666f60008201527f722063616c6c0000000000000000000000000000000000000000000000000000602082015250565b6000610fb7602683610af5565b9150610fc282610f5b565b604082019050919050565b60006020820190508181036000830152610fe681610faa565b9050919050565b600081519050919050565b600081905092915050565b60005b83811015611021578082015181840152602081019050611006565b83811115611030576000848401525b50505050565b600061104182610fed565b61104b8185610ff8565b935061105b818560208601611003565b80840191505092915050565b60006110738284611036565b915081905092915050565b7f416464726573733a2063616c6c20746f206e6f6e2d636f6e7472616374000000600082015250565b60006110b4601d83610af5565b91506110bf8261107e565b602082019050919050565b600060208201905081810360008301526110e3816110a7565b9050919050565b600081519050919050565b6000601f19601f8301169050919050565b6000611111826110ea565b61111b8185610af5565b935061112b818560208601611003565b611134816110f5565b840191505092915050565b600060208201905081810360008301526111598184611106565b90509291505056fea2646970667358221220b05387915ee83cef78ff9192fffc1a4d724194faeb877e2ae425b446cfca7f8d64736f6c63430008090033",
  "immutableReferences": {},
  "source": "// SPDX-License-Identifier: MIT\npragma solidity ^0.8.9;\n\nimport \"@openzeppelin/contracts/security/Pausable.sol\";\nimport \"@openzeppelin/contracts/access/Ownable.sol\";\nimport \"@openzeppelin/contracts/token/ERC20/utils/SafeERC20.sol\"; // Import SafeERC20 library\nimport \"@openzeppelin/contracts/token/ERC20/IERC20.sol\"; // Import IERC20 interface\n\ncontract Eater is Pausable, Ownable {\n    using SafeERC20 for IERC20; // Use SafeERC20 library\n\n    mapping (address=>uint256) public tokenBalances;\n\n    function pause() public onlyOwner {\n        _pause();\n    }\n\n    function unpause() public onlyOwner {\n        _unpause();\n    }\n\n    // Safe transfer of ERC20 tokens using safeERC20\n    function _safeTransferERC20(\n        address token,\n        address to,\n        uint256 amount\n    ) internal onlyOwner {\n        IERC20(token).safeTransfer(to, amount);\n    }\n\n    // Safe transferFrom of ERC20 tokens using safeERC20\n    function _safeTransferFromERC20(\n        address token,\n        address from,\n        address to,\n        uint256 amount\n    ) internal onlyOwner {\n        IERC20(token).safeTransferFrom(from, to, amount);\n    }\n\n    // Deposit ERC20 tokens into the contract\n    function depositToken(address token, uint256 amount) external onlyOwner {\n        require(token != address(0), \"Invalid token address\");\n        require(amount > 0, \"Amount must be greater than 0\");\n\n        tokenBalances[token] += amount;\n        IERC20(token).safeTransferFrom(msg.sender, address(this), amount);\n    }\n}\n",
  "sourcePath": "/Users/chesterking/Desktop/CapxOps/ioueater/contracts/Eater.sol",
  "compiler": {
    "name": "solc",
    "version": "0.8.9+commit.e5eed63a.Emscripten.clang"
  },
  "schemaVersion": "3.4.7",
  "updatedAt": "2023-08-23T08:35:26.870Z",
  "networkType": "ethereum",
  "devdoc": {
    "kind": "dev",
    "methods": {
      "owner()": {
        "details": "Returns the address of the current owner."
      },
      "paused()": {
        "details": "Returns true if the contract is paused, and false otherwise."
      },
      "renounceOwnership()": {
        "details": "Leaves the contract without owner. It will not be possible to call `onlyOwner` functions. Can only be called by the current owner. NOTE: Renouncing ownership will leave the contract without an owner, thereby disabling any functionality that is only available to the owner."
      },
      "transferOwnership(address)": {
        "details": "Transfers ownership of the contract to a new account (`newOwner`). Can only be called by the current owner."
      }
    },
    "version": 1
  },
  "userdoc": {
    "kind": "user",
    "methods": {},
    "version": 1
  }
}